{
  "_format": "hh-sol-artifact-1",
  "contractName": "Raffle",
  "sourceName": "contracts/Raffle..sol",
  "abi": [
    {
      "inputs": [
        {
          "internalType": "address",
          "name": "vrfCoordinatorV2",
          "type": "address"
        },
        {
          "internalType": "uint256",
          "name": "entranceFee",
          "type": "uint256"
        },
        {
          "internalType": "bytes32",
          "name": "gasLane",
          "type": "bytes32"
        },
        {
          "internalType": "uint64",
          "name": "subscriptionId",
          "type": "uint64"
        },
        {
          "internalType": "uint32",
          "name": "callbackGasLimit",
          "type": "uint32"
        },
        {
          "internalType": "uint256",
          "name": "interval",
          "type": "uint256"
        }
      ],
      "stateMutability": "nonpayable",
      "type": "constructor"
    },
    {
      "inputs": [
        {
          "internalType": "address",
          "name": "have",
          "type": "address"
        },
        {
          "internalType": "address",
          "name": "want",
          "type": "address"
        }
      ],
      "name": "OnlyCoordinatorCanFulfill",
      "type": "error"
    },
    {
      "inputs": [],
      "name": "Raffle__NotEnoughEthEntered",
      "type": "error"
    },
    {
      "inputs": [],
      "name": "Raffle__NotOpen",
      "type": "error"
    },
    {
      "inputs": [],
      "name": "Raffle__TransferFailed",
      "type": "error"
    },
    {
      "inputs": [
        {
          "internalType": "uint256",
          "name": "currentBalance",
          "type": "uint256"
        },
        {
          "internalType": "uint256",
          "name": "numPlayers",
          "type": "uint256"
        },
        {
          "internalType": "uint256",
          "name": "raffleState",
          "type": "uint256"
        }
      ],
      "name": "Raffle__UpkeepNotNeeded",
      "type": "error"
    },
    {
      "anonymous": false,
      "inputs": [
        {
          "indexed": true,
          "internalType": "address",
          "name": "player",
          "type": "address"
        }
      ],
      "name": "RaffleEnter",
      "type": "event"
    },
    {
      "anonymous": false,
      "inputs": [
        {
          "indexed": true,
          "internalType": "uint256",
          "name": "requestId",
          "type": "uint256"
        }
      ],
      "name": "RequestedRaffleWinner",
      "type": "event"
    },
    {
      "anonymous": false,
      "inputs": [
        {
          "indexed": true,
          "internalType": "address",
          "name": "winner",
          "type": "address"
        }
      ],
      "name": "WinnerPicked",
      "type": "event"
    },
    {
      "inputs": [
        {
          "internalType": "bytes",
          "name": "",
          "type": "bytes"
        }
      ],
      "name": "checkUpkeep",
      "outputs": [
        {
          "internalType": "bool",
          "name": "upkeepNeeded",
          "type": "bool"
        },
        {
          "internalType": "bytes",
          "name": "",
          "type": "bytes"
        }
      ],
      "stateMutability": "nonpayable",
      "type": "function"
    },
    {
      "inputs": [],
      "name": "enterRaffle",
      "outputs": [],
      "stateMutability": "payable",
      "type": "function"
    },
    {
      "inputs": [],
      "name": "getEntranceFee",
      "outputs": [
        {
          "internalType": "uint256",
          "name": "",
          "type": "uint256"
        }
      ],
      "stateMutability": "view",
      "type": "function"
    },
    {
      "inputs": [],
      "name": "getNumWords",
      "outputs": [
        {
          "internalType": "uint256",
          "name": "",
          "type": "uint256"
        }
      ],
      "stateMutability": "view",
      "type": "function"
    },
    {
      "inputs": [
        {
          "internalType": "uint256",
          "name": "index",
          "type": "uint256"
        }
      ],
      "name": "getPlayer",
      "outputs": [
        {
          "internalType": "address",
          "name": "",
          "type": "address"
        }
      ],
      "stateMutability": "view",
      "type": "function"
    },
    {
      "inputs": [],
      "name": "getRaffleState",
      "outputs": [
        {
          "internalType": "enum Raffle.RaffleState",
          "name": "",
          "type": "uint8"
        }
      ],
      "stateMutability": "view",
      "type": "function"
    },
    {
      "inputs": [],
      "name": "getRecentWinner",
      "outputs": [
        {
          "internalType": "address",
          "name": "",
          "type": "address"
        }
      ],
      "stateMutability": "view",
      "type": "function"
    },
    {
      "inputs": [
        {
          "internalType": "bytes",
          "name": "",
          "type": "bytes"
        }
      ],
      "name": "performUpkeep",
      "outputs": [],
      "stateMutability": "nonpayable",
      "type": "function"
    },
    {
      "inputs": [
        {
          "internalType": "uint256",
          "name": "requestId",
          "type": "uint256"
        },
        {
          "internalType": "uint256[]",
          "name": "randomWords",
          "type": "uint256[]"
        }
      ],
      "name": "rawFulfillRandomWords",
      "outputs": [],
      "stateMutability": "nonpayable",
      "type": "function"
    }
  ],
  "bytecode": "0x6101606040523480156200001257600080fd5b506040516200171e3803806200171e8339818101604052810190620000389190620001ad565b858073ffffffffffffffffffffffffffffffffffffffff1660808173ffffffffffffffffffffffffffffffffffffffff1660601b81525050508460a081815250508573ffffffffffffffffffffffffffffffffffffffff1660c08173ffffffffffffffffffffffffffffffffffffffff1660601b815250508360e081815250508267ffffffffffffffff166101008167ffffffffffffffff1660c01b815250508163ffffffff166101208163ffffffff1660e01b815250506000600160146101000a81548160ff02191690836001811115620001195762000118620002b5565b5b0217905550426002819055508061014081815250505050505050506200036b565b6000815190506200014b81620002e9565b92915050565b600081519050620001628162000303565b92915050565b60008151905062000179816200031d565b92915050565b600081519050620001908162000337565b92915050565b600081519050620001a78162000351565b92915050565b60008060008060008060c08789031215620001cd57620001cc620002e4565b5b6000620001dd89828a016200013a565b9650506020620001f089828a0162000168565b95505060406200020389828a0162000151565b94505060606200021689828a0162000196565b93505060806200022989828a016200017f565b92505060a06200023c89828a0162000168565b9150509295509295509295565b6000620002568262000267565b9050919050565b6000819050919050565b600073ffffffffffffffffffffffffffffffffffffffff82169050919050565b6000819050919050565b600063ffffffff82169050919050565b600067ffffffffffffffff82169050919050565b7f4e487b7100000000000000000000000000000000000000000000000000000000600052602160045260246000fd5b600080fd5b620002f48162000249565b81146200030057600080fd5b50565b6200030e816200025d565b81146200031a57600080fd5b50565b620003288162000287565b81146200033457600080fd5b50565b620003428162000291565b81146200034e57600080fd5b50565b6200035c81620002a1565b81146200036857600080fd5b50565b60805160601c60a05160c05160601c60e0516101005160c01c6101205160e01c6101405161133e620003e060003960006106f5015260006105b3015260006105900152600061056f01526000610533015260008181610212015261030f01526000818161024f01526102a3015261133e6000f3fe6080604052600436106100865760003560e01c80634585e33b116100595780634585e33b14610114578063473f1ddc1461013d57806353a2c19a146101685780636e04ff0d14610193578063e55ae4e8146101d157610086565b806309bc33a71461008b578063115cbaf5146100b65780631fe543e3146100e15780632cfcc5391461010a575b600080fd5b34801561009757600080fd5b506100a061020e565b6040516100ad9190610f32565b60405180910390f35b3480156100c257600080fd5b506100cb610236565b6040516100d89190610f17565b60405180910390f35b3480156100ed57600080fd5b5061010860048036038101906101039190610cfc565b61024d565b005b61011261030d565b005b34801561012057600080fd5b5061013b60048036038101906101369190610c0c565b61047c565b005b34801561014957600080fd5b5061015261067b565b60405161015f9190610e50565b60405180910390f35b34801561017457600080fd5b5061017d6106a5565b60405161018a9190610f32565b60405180910390f35b34801561019f57600080fd5b506101ba60048036038101906101b59190610c59565b6106b2565b6040516101c8929190610e94565b60405180910390f35b3480156101dd57600080fd5b506101f860048036038101906101f39190610ca2565b61075f565b6040516102059190610e50565b60405180910390f35b60007f0000000000000000000000000000000000000000000000000000000000000000905090565b6000600160149054906101000a900460ff16905090565b7f000000000000000000000000000000000000000000000000000000000000000073ffffffffffffffffffffffffffffffffffffffff163373ffffffffffffffffffffffffffffffffffffffff16146102ff57337f00000000000000000000000000000000000000000000000000000000000000006040517f1cf993f40000000000000000000000000000000000000000000000000000000081526004016102f6929190610e6b565b60405180910390fd5b61030982826107a6565b5050565b7f0000000000000000000000000000000000000000000000000000000000000000341015610367576040517f066d781f00000000000000000000000000000000000000000000000000000000815260040160405180910390fd5b6000600181111561037b5761037a61121e565b5b600160149054906101000a900460ff16600181111561039d5761039c61121e565b5b146103d4576040517f1425571c00000000000000000000000000000000000000000000000000000000815260040160405180910390fd5b6000339080600181540180825580915050600190039060005260206000200160009091909190916101000a81548173ffffffffffffffffffffffffffffffffffffffff021916908373ffffffffffffffffffffffffffffffffffffffff1602179055503373ffffffffffffffffffffffffffffffffffffffff167f0805e1d667bddb8a95f0f09880cf94f403fb596ce79928d9f29b74203ba284d460405160405180910390a2565b6000610496604051806020016040528060008152506106b2565b509050806105055747600080549050600160149054906101000a900460ff1660018111156104c7576104c661121e565b5b6040517f584327aa0000000000000000000000000000000000000000000000000000000081526004016104fc93929190610f4d565b60405180910390fd5b60018060146101000a81548160ff0219169083600181111561052a5761052961121e565b5b021790555060007f000000000000000000000000000000000000000000000000000000000000000073ffffffffffffffffffffffffffffffffffffffff16635d3b1d307f00000000000000000000000000000000000000000000000000000000000000007f000000000000000000000000000000000000000000000000000000000000000060037f000000000000000000000000000000000000000000000000000000000000000060016040518663ffffffff1660e01b81526004016105f4959493929190610ec4565b602060405180830381600087803b15801561060e57600080fd5b505af1158015610622573d6000803e3d6000fd5b505050506040513d601f19601f820116820180604052508101906106469190610ccf565b9050807fcd6e45c8998311cab7e9d4385596cac867e20a0587194b954fa3a731c93ce78b60405160405180910390a250505050565b6000600160009054906101000a900473ffffffffffffffffffffffffffffffffffffffff16905090565b6000600161ffff16905090565b600060606000600160149054906101000a900460ff1660018111156106da576106d961121e565b5b600060018111156106ee576106ed61121e565b5b14905060007f000000000000000000000000000000000000000000000000000000000000000060025442610722919061102d565b119050600080600080549050119050600080471190508380156107425750825b801561074b5750815b80156107545750805b955050505050915091565b60008082815481106107745761077361124d565b5b9060005260206000200160009054906101000a900473ffffffffffffffffffffffffffffffffffffffff169050919050565b60008080549050826000815181106107c1576107c061124d565b5b60200260200101516107d3919061118f565b905060008082815481106107ea576107e961124d565b5b9060005260206000200160009054906101000a900473ffffffffffffffffffffffffffffffffffffffff16905080600160006101000a81548173ffffffffffffffffffffffffffffffffffffffff021916908373ffffffffffffffffffffffffffffffffffffffff1602179055506000600160146101000a81548160ff0219169083600181111561087e5761087d61121e565b5b0217905550600067ffffffffffffffff81111561089e5761089d61127c565b5b6040519080825280602002602001820160405280156108cc5781602001602082028036833780820191505090505b50600090805190602001906108e29291906109d7565b504260028190555060008173ffffffffffffffffffffffffffffffffffffffff164760405161091090610e3b565b60006040518083038185875af1925050503d806000811461094d576040519150601f19603f3d011682016040523d82523d6000602084013e610952565b606091505b505090508061098d576040517fa1d04b3900000000000000000000000000000000000000000000000000000000815260040160405180910390fd5b8173ffffffffffffffffffffffffffffffffffffffff167f5b690ec4a06fe979403046eaeea5b3ce38524683c3001f662c8b5a829632f7df60405160405180910390a25050505050565b828054828255906000526020600020908101928215610a50579160200282015b82811115610a4f5782518260006101000a81548173ffffffffffffffffffffffffffffffffffffffff021916908373ffffffffffffffffffffffffffffffffffffffff160217905550916020019190600101906109f7565b5b509050610a5d9190610a61565b5090565b5b80821115610a7a576000816000905550600101610a62565b5090565b6000610a91610a8c84610fa9565b610f84565b90508083825260208201905082856020860282011115610ab457610ab36112b5565b5b60005b85811015610ae45781610aca8882610be2565b845260208401935060208301925050600181019050610ab7565b5050509392505050565b6000610b01610afc84610fd5565b610f84565b905082815260208101848484011115610b1d57610b1c6112ba565b5b610b2884828561111c565b509392505050565b600082601f830112610b4557610b446112b0565b5b8135610b55848260208601610a7e565b91505092915050565b60008083601f840112610b7457610b736112b0565b5b8235905067ffffffffffffffff811115610b9157610b906112ab565b5b602083019150836001820283011115610bad57610bac6112b5565b5b9250929050565b600082601f830112610bc957610bc86112b0565b5b8135610bd9848260208601610aee565b91505092915050565b600081359050610bf1816112f1565b92915050565b600081519050610c06816112f1565b92915050565b60008060208385031215610c2357610c226112c4565b5b600083013567ffffffffffffffff811115610c4157610c406112bf565b5b610c4d85828601610b5e565b92509250509250929050565b600060208284031215610c6f57610c6e6112c4565b5b600082013567ffffffffffffffff811115610c8d57610c8c6112bf565b5b610c9984828501610bb4565b91505092915050565b600060208284031215610cb857610cb76112c4565b5b6000610cc684828501610be2565b91505092915050565b600060208284031215610ce557610ce46112c4565b5b6000610cf384828501610bf7565b91505092915050565b60008060408385031215610d1357610d126112c4565b5b6000610d2185828601610be2565b925050602083013567ffffffffffffffff811115610d4257610d416112bf565b5b610d4e85828601610b30565b9150509250929050565b610d6181611061565b82525050565b610d7081611073565b82525050565b610d7f8161107f565b82525050565b6000610d9082611006565b610d9a8185611011565b9350610daa81856020860161112b565b610db3816112c9565b840191505092915050565b610dc7816110f8565b82525050565b6000610dda600083611022565b9150610de5826112da565b600082019050919050565b610df98161109c565b82525050565b610e088161110a565b82525050565b610e17816110ca565b82525050565b610e26816110d4565b82525050565b610e35816110e4565b82525050565b6000610e4682610dcd565b9150819050919050565b6000602082019050610e656000830184610d58565b92915050565b6000604082019050610e806000830185610d58565b610e8d6020830184610d58565b9392505050565b6000604082019050610ea96000830185610d67565b8181036020830152610ebb8184610d85565b90509392505050565b600060a082019050610ed96000830188610d76565b610ee66020830187610e2c565b610ef36040830186610df0565b610f006060830185610e1d565b610f0d6080830184610dff565b9695505050505050565b6000602082019050610f2c6000830184610dbe565b92915050565b6000602082019050610f476000830184610e0e565b92915050565b6000606082019050610f626000830186610e0e565b610f6f6020830185610e0e565b610f7c6040830184610e0e565b949350505050565b6000610f8e610f9f565b9050610f9a828261115e565b919050565b6000604051905090565b600067ffffffffffffffff821115610fc457610fc361127c565b5b602082029050602081019050919050565b600067ffffffffffffffff821115610ff057610fef61127c565b5b610ff9826112c9565b9050602081019050919050565b600081519050919050565b600082825260208201905092915050565b600081905092915050565b6000611038826110ca565b9150611043836110ca565b925082821015611056576110556111c0565b5b828203905092915050565b600061106c826110aa565b9050919050565b60008115159050919050565b6000819050919050565b6000819050611097826112dd565b919050565b600061ffff82169050919050565b600073ffffffffffffffffffffffffffffffffffffffff82169050919050565b6000819050919050565b600063ffffffff82169050919050565b600067ffffffffffffffff82169050919050565b600061110382611089565b9050919050565b60006111158261109c565b9050919050565b82818337600083830152505050565b60005b8381101561114957808201518184015260208101905061112e565b83811115611158576000848401525b50505050565b611167826112c9565b810181811067ffffffffffffffff821117156111865761118561127c565b5b80604052505050565b600061119a826110ca565b91506111a5836110ca565b9250826111b5576111b46111ef565b5b828206905092915050565b7f4e487b7100000000000000000000000000000000000000000000000000000000600052601160045260246000fd5b7f4e487b7100000000000000000000000000000000000000000000000000000000600052601260045260246000fd5b7f4e487b7100000000000000000000000000000000000000000000000000000000600052602160045260246000fd5b7f4e487b7100000000000000000000000000000000000000000000000000000000600052603260045260246000fd5b7f4e487b7100000000000000000000000000000000000000000000000000000000600052604160045260246000fd5b600080fd5b600080fd5b600080fd5b600080fd5b600080fd5b600080fd5b6000601f19601f8301169050919050565b50565b600281106112ee576112ed61121e565b5b50565b6112fa816110ca565b811461130557600080fd5b5056fea2646970667358221220bf7ccf95e361911c783472a15e0fd7406ddab5ed8adfdcd85a5ea924388dbe6364736f6c63430008070033",
  "linkReferences": {},
  "deployedLinkReferences": {}
}